:100000000C9468000C9460060C9439060C948500DE
:100010000C9485000C9485000C9487060C94850044
:100020000C9485000C9485000C9485000C9485003C
:100030000C9485000C9485000C9485000C9485002C
:100040000C94EF050C9485000C9485000C948500AD
:100050000C9485000C9485000C9485000C9485000C
:100060000C9485000C9485006F070E085308A608B1
:10007000F6097B0ACB0A00000000240027002A00B2
:1000800000000000250028002B00000000002300D5
:1000900026002900040404040404040402020202E9
:1000A000020203030303030301020408102040803B
:1000B00001020408102001020408102000000008BA
:1000C000000201000003040700000000000000001F
:1000D00011241FBECFEFD8E0DEBFCDBF11E0A0E0FE
:1000E000B1E0ECE1FDE102C005900D92AE30B10748
:1000F000D9F721E0AEE0B1E001C01D92AB35B20707
:10010000E1F70E949E060C948C0E0C940000833044
:1001100081F028F4813099F08230A1F00895873081
:10012000A9F08830B9F08430D1F4809180008F7DBF
:1001300003C0809180008F7780938000089584B5FC
:100140008F7702C084B58F7D84BD08958091B00003
:100150008F7703C08091B0008F7D8093B0000895A9
:10016000CF93DF93282F30E0F901E454FF4F8491BF
:10017000F901E855FF4FD491F901EC56FF4FC491B6
:10018000CC2391F081110E948700EC2FF0E0EE0F5C
:10019000FF1FE657FF4FA591B491EC91ED2381E04D
:1001A00090E021F480E002C080E090E0DF91CF9108
:1001B00008951F93CF93DF93282F30E0F901E45483
:1001C000FF4F8491F901E855FF4FD491F901EC56A6
:1001D000FF4FC491CC23C1F0162F81110E948700DC
:1001E000EC2FF0E0EE0FFF1FE058FF4FA591B49108
:1001F0009FB7F894111104C08C91D095D82302C0F8
:10020000EC91DE2BDC939FBFDF91CF911F9108957E
:10021000CF93DF9390E0FC01E855FF4F2491FC0160
:10022000EC56FF4F8491882361F190E0880F991F6D
:10023000FC01EA58FF4FC591D491FC01E058FF4FF3
:10024000A591B491611109C09FB7F8948881209558
:1002500082238883EC912E230BC0623061F49FB718
:10026000F8948881322F309583238883EC912E2B4C
:100270002C939FBF06C08FB7F894E8812E2B28835C
:100280008FBFDF91CF9108953FB7F89480915601C9
:1002900090915701A0915801B091590126B5A89BA2
:1002A00005C02F3F19F00196A11DB11D3FBFBA2F08
:1002B000A92F982F8827820F911DA11DB11DBC0168
:1002C000CD0142E0660F771F881F991F4A95D1F72D
:1002D00008958F929F92AF92BF92CF92DF92EF924A
:1002E000FF926B017C010E9444014B015C01C1142F
:1002F000D104E104F104F1F00E944401DC01CB01DE
:1003000088199909AA09BB09883E9340A105B1053E
:1003100070F321E0C21AD108E108F10888EE880ED6
:1003200083E0981EA11CB11CC114D104E104F104A6
:1003300019F7DDCFFF90EF90DF90CF90BF90AF9097
:100340009F908F9008952FB7F8946091520170910B
:10035000530180915401909155012FBF0895089544
:1003600008954115510529F4EAE7F0E080818F777F
:1003700080836A307105A9F063FD02C088E001C086
:1003800088E26770682B88E10FB6F894A89580938F
:1003900060000FBE60936000E0E6F0E08081806462
:1003A0008083232BA1F483B7817F846083BFF8947B
:1003B00083B7816083BF85B7806685BF8F7D85BF2A
:1003C0007894889583B78E7F83BF78940EC083B767
:1003D000817F846083BFF89483B7816083BF789402
:1003E000889583B78E7F83BF7894452B29F4EAE7FD
:1003F000F0E08081806880830895CF92DF92EF9251
:10040000FF920F931F93C0900401D0900501E090DC
:100410000601F09007018B019C010F5C1F4F2F4FCD
:100420003F4F0C151D052E053F0574F4A7019601DD
:10043000261B370B480B590B209304013093050101
:1004400040930601509307011F910F91FF90EF9089
:10045000DF90CF900895CF93C0910E0182E0CC231E
:1004600051F00E94B00021E0892B09F020E0209398
:100470000E01C0E008C00E94B000892B21F481E089
:1004800080930E01C1E08C2FCF910895CF9380917E
:100490005A012FE130E0281B310980911901909118
:1004A0001A01A0911B01B0911C0104C0B595A7953C
:1004B000979587952A95D2F78170C82FCC0F0E9407
:1004C0002B028C0FCF9108958F929F92AF92BF9283
:1004D000CF92DF92EF92FF924091190150911A0151
:1004E00060911B0170911C0120E130E0812C912C66
:1004F00054018394F9017097DC0102C0B695A79569
:10050000EA95E2F775016401022E04C0CC0CDD1CF3
:10051000EE1CFF1C0A94D2F7A0FF05C04C295D29F0
:100520006E297F2908C0C094D094E094F0944C21A7
:100530005D216E217F212F5F3F4F20323105D1F6A3
:100540004093190150931A0160931B0170931C0191
:10055000FF90EF90DF90CF90BF90AF909F908F90E3
:1005600008958F929F92AF92BF92CF92DF92EF92B7
:10057000FF92CF93DF934091190150911A0160913E
:100580001B0170911C012FE030E0EFE0F0E0812CC6
:10059000912C54018394DF01A21BB30BEC0102C028
:1005A000D695C795AA95E2F775016401022E04C09D
:1005B000CC0CDD1CEE1CFF1C0A94D2F7C0FF05C05A
:1005C0004C295D296E297F2908C0C094D094E094FD
:1005D000F0944C215D216E217F2121503109D8F604
:1005E0004093190150931A0160931B0170931C01F1
:1005F000DF91CF91FF90EF90DF90CF90BF90AF90C1
:100600009F908F90089560E087E00E94D90083E278
:1006100090E00197F1F761E087E00C94D90060E089
:1006200085E00E94D90083E290E00197F1F70E94F3
:10063000030361E085E00E94D90010921901109235
:100640001A0110921B0110921C01089560E081E0D4
:100650000C94D90061E081E00C94D90041E050E0B5
:1006600060E070E004C0440F551F661F771F8A9535
:10067000D2F74095509560957095809119019091B1
:100680001A01A0911B01B0911C01482359236A2330
:100690007B234093190150931A0160931B017093BF
:1006A0001C01089541E050E060E070E004C0440F98
:1006B000551F661F771F8A95D2F780911901909177
:1006C0001A01A0911B01B0911C01482B592B6A2BD8
:1006D0007B2B4093190150931A0160931B01709377
:1006E0001C010895CF93DF9380E090E00E946402A4
:1006F00080915A018F3011F48DE001C080E0CFE18C
:10070000C81BDCE1D81B8C2F0E945203C150CD13B3
:10071000FACFDF91CF9108950F931F93CF93DF937B
:10072000C7E0D0E0082F10E0B8010C2E02C075958C
:1007300067950A94E2F7617080E00E94D90061E059
:1007400084E00E94D90060E084E00E94D9002197F3
:1007500058F7DF91CF911F910F9108951F93CF9379
:10076000DF93C0911901D0911A0110911B01809162
:100770001C010E948C03812F0E948C038D2F0E94EC
:100780008C038C2F0E948C03DF91CF911F910C94CE
:1007900003030F931F93CF930E94A30100911501B0
:1007A00010911601209117013091180106171707B3
:1007B0002807390708F04AC00E94A30100910401EC
:1007C000109105012091060130910701DC01CB0158
:1007D000800F911FA21FB31F8093150190931601E4
:1007E000A0931701B0931801C0915A018C2F0E9459
:1007F0002E0380914C01882379F0CF3059F48091F9
:100800002A01882321F010924C018EE00EC0109234
:100810005A0113C0CF5F0FC0C1110CC080912A01D3
:10082000882331F081E080934C0180935A0105C008
:100830008FE0FBCFC150C0935A0180915A010E94B2
:100840005203CF911F910F910C94AE03CF911F9142
:100850000F9108952F923F924F925F926F927F92E5
:100860008F929F92AF92BF92CF92DF92EF92FF92C0
:100870000F931F93CF93DF93662309F4D6C0209183
:100880004C0190912A01C0905A012223B1F0C62F49
:10089000D0E0D12C992359F02FE030E02C193D09FC
:1008A0002C173D0724F4860101501109C0C0CC0D5E
:1008B000DD1D8601015F1F4F1AC0992361F0CC2D09
:1008C000D0E0C61620F421960FE010E010C08E0193
:1008D000061B110906C02C2D30E08901061B1109E9
:1008E000E9012F97D7FF03C06096005F1F4F40912B
:1008F000190150911A0160911B0170911C019E0118
:10090000312CEFE1F0E002171307A4F0D901AF702A
:10091000BB277F01EA1AFB0A4A015B0104C0B594B8
:10092000A79497948794EA94D2F780FE33942F5F2C
:100930003F4FE9CF831508F4382E212C68018FEF43
:10094000C81AD80A0D2C000CEE08FF080FE110E0C1
:10095000231409F43BC04E010D2E000CAA08BB085D
:100960008C149D04AE04BF04ACF426013701481872
:1009700059086A087B0839F00E94850CA30192018E
:100980000E94F20C03C060E070E0CB01860E971E5F
:10099000A81EB91E482D4F709801241B3109809163
:1009A000190190911A01A0911B01B0911C0104C082
:1009B000B595A795979587952A95D2F780FDCBCFCA
:1009C0008FE1841B0E9452032394C2CF40911901EE
:1009D00050911A0160911B0170911C0120E130E0DF
:1009E00080E06A017B01022E04C0F594E794D7945D
:1009F000C7940A94D2F7C0FC8F5F2F5F3F4F20321D
:100A0000310579F7DF91CF911F910F91FF90EF9012
:100A1000DF90CF90BF90AF909F908F907F906F901E
:100A20005F904F903F902F9008950FE010E0C0E04E
:100A3000D0E05DCFAF92BF92DF92EF92FF920F9323
:100A40001F93CF93DF93EC017B018B015C0182E06C
:100A5000A80EB11CF801D1908F01CE010E94DC0CD0
:100A6000D81621F06D2DCE010E94E40C2196CA15F6
:100A7000DB0581F7C701DF91CF911F910F91FF90A7
:100A8000EF90DF90BF90AF9008950F931F93CF9397
:100A9000DF930E942A036CE271E080E090E00E9404
:100AA00069010E9426036CE271E080E090E00E9400
:100AB00069010E942A036CE271E080E090E00E94EC
:100AC00069010E9426036CE271E080E090E00E94E0
:100AD00069010E942A036CE271E080E090E00E94CC
:100AE00069010E9426036CE271E080E090E00E94C0
:100AF000690180914D0190914E010E94B102C09117
:100B00004F01D0E0CC0FDD1FFE01E55DFE4F0081FF
:100B10001181C8010E9464020E94AE0368EE73E076
:100B200080E090E00E94690180914D0190914E011A
:100B30000817190710F56DE471E0CE010E941A053F
:100B4000E0914F01F0E0EE0FFF1FE55DFE4F809159
:100B50004D0190914E01918380830E942A0364EF9E
:100B600071E080E090E00E9469010E94260364EF3A
:100B700071E080E090E00E94690110925001DF91E5
:100B8000CF911F910F910895EF92FF920F931F93B2
:100B9000CF93DF9300D0CDB7DEB71A8219828BE2F4
:100BA000E82E81E0F82E00E010E0BE016F5F7F4F7D
:100BB000C8010E941A0589819A81F7018193919356
:100BC0007F010E5F1F4F0032110579F70F900F90D4
:100BD000DF91CF911F910F91FF90EF9008951F9299
:100BE0000F920FB60F9211242F933F938F939F93E1
:100BF000AF93BF938091520190915301A091540102
:100C0000B09155013091510123E0230F2D3720F48D
:100C10000196A11DB11D05C026E8230F0296A11D56
:100C2000B11D209351018093520190935301A093E1
:100C30005401B09355018091560190915701A091B4
:100C40005801B09159010196A11DB11D8093560123
:100C500090935701A0935801B0935901BF91AF9160
:100C60009F918F913F912F910F900FBE0F901F90EA
:100C700018951F920F920FB60F9211242F933F9346
:100C80004F935F936F937F938F939F93AF93BF9394
:100C9000EF93FF93E0910201F09103010995FF9119
:100CA000EF91BF91AF919F918F917F916F915F91E4
:100CB0004F913F912F910F900FBE0F901F9018955D
:100CC0001F920F920FB60F9211242F933F934F93C1
:100CD0005F936F937F938F939F93AF93BF93EF93A4
:100CE000FF93E0910001F09101010995FF91EF91CF
:100CF000BF91AF919F918F917F916F915F914F9134
:100D00003F912F910F900FBE0F901F9018951F923B
:100D10000F920FB60F9211248F930FB6F894A895E7
:100D200080916000886180936000109260000FBE27
:100D30008F910F900FBE0F901F901895CF93DF9358
:100D4000CDB7DEB727970FB6F894DEBF0FBECDBF85
:100D5000789484B5826084BD84B5816084BD85B596
:100D6000826085BD85B5816085BD80916E008160A2
:100D700080936E0010928100809181008260809348
:100D8000810080918100816080938100809180004A
:100D90008160809380008091B10084608093B10075
:100DA0008091B00081608093B00080917A0084606F
:100DB00080937A0080917A00826080937A0080919B
:100DC0007A00816080937A0080917A0080688093B5
:100DD0007A001092C10061E080E00E94080161E0A9
:100DE00084E00E94080161E081E00E94080161E066
:100DF00085E00E94080161E087E00E94080162E04E
:100E000082E00E94080162E083E00E9408010E94E3
:100E10000F030E9426030BE211E01B821A828A81D3
:100E20009B810E94DC0C80934D018A819B810196FD
:100E30000E94DC0C80934E0180914D0190914E01F7
:100E4000D8018D939D938D018131974260F00E946E
:100E5000C405812C912C5401839450E5452E512CCE
:100E6000612C712C30C0EA81FB813296FB83EA83CE
:100E7000B097A9F6EECF80915001882309F4F6C30C
:100E8000E0914F018E2F90E08730910508F180911D
:100E90000801882309F4E6C364EF71E080E090E084
:100EA0000E9469010E94A3016115710581059105E8
:100EB00011F00E94D30C1092080160E070E0672BE3
:100EC000D1F20E9400003BEC232E37E0332ED3CF2B
:100ED000FC01EC5CFF4F909108010C94860E992365
:100EE00099F081E080932A0180915A010E94520377
:100EF0000E94720363E085E00E942A0490E1981B3F
:100F0000909311010E94AE030E9446028130F9F0D5
:100F100048F0823009F46AC0833009F072C00E9440
:100F200045056FC09091100180915A01981709F4FE
:100F300068C080910F01882331F0809111018150A8
:100F4000809311015EC081E080930F015AC08091AF
:100F50004D0190914E01019690934E0180934D0169
:100F600010920F0180915A010E942E0380914C0132
:100F7000882321F08FE080935A0102C010925A0119
:100F800080915A010E9452030E94720361E070E056
:100F900080E090E00E94FD0180914D0190914E0112
:100FA00083709927892B11F497E001C098E063E0E2
:100FB0008DE0891B0E942A0490E1981B90931101F7
:100FC0000E94AE038091040190910501A091060159
:100FD000B0910701BC01CD0122E0660F771F881F89
:100FE000991F2A95D1F70E9469010BC080910F01CA
:100FF000882339F080911101815080931101109262
:101000000F0180915A01809310010E94C9038091C1
:10101000110181113CCF0E94450539CF992379F008
:1010200081E080932A0180915A010E94520360E07E
:1010300084E00E942A04809312010E94AE030E9461
:101040004602813009F454C2833009F0A1C2809174
:101050004D0190914E01019690934E0180934D0168
:10106000F0911201F150F983F093120190915A011D
:101070008FE1891B0E942E032981211189C260E022
:1010800084E00E942A048093120180914D01909186
:101090004E010A9690934E0180934D0165E070E0F9
:1010A00080E090E073C2992361F080E390E00E94B9
:1010B000640210922A0180915A010E9452030E94F8
:1010C000AE0380915A01811104C010921401109254
:1010D00013018091140181115BC20E94460281308C
:1010E00009F406C260F1823069F1833009F050C220
:1010F00080914D0190914E01019690934E01809305
:101100004D0181E08093140160910401709105010B
:1011100080910601909107010E948D0D26E636E62A
:1011200046E65FE30E94F10D0E94550D60930401B5
:1011300070930501809306019093070129C2809165
:101140001301F4C181E08093130122C29923A1F01D
:1011500081E080932A0180E090E00E94640288E0B0
:1011600080931D013BE1398389810E9452034981AB
:10117000415049834331C1F70E942B02882309F46F
:10118000BBC06AEF70E080E090E00E946901C0900F
:101190001901D0901A01E0901B01F0901C0180E031
:1011A00090E010E0B701A601082E04C07595679580
:1011B000579547950A94D2F740FF27C0EFE1F0E03A
:1011C000E81BF90BB701A60104C075956795579503
:1011D0004795EA95D2F74C835D836E837F8340FF0A
:1011E00002C01F5F12C0B501A401082E04C0440F45
:1011F000551F661F771F0A94D2F74095509560954A
:101200007095C422D522E622F722019680319105FD
:1012100049F6C0921901D0921A01E0921B01F09296
:101220001C0110931D010E94AE03111103C00E9406
:10123000450562C06AEF70E080E090E00E946901BD
:101240002FE130E08FE190E0821B930BB701A60104
:1012500004C075956795579547958A95D2F740FFD5
:101260000FC0D501C401022E04C0880F991FAA1F08
:10127000BB1F0A94D2F7C82AD92AEA2AFB2A12C02D
:10128000D501C401022E04C0880F991FAA1FBB1FDD
:101290000A94D2F780959095A095B095C822D9224E
:1012A000EA22FB22215031092F30310559F6C09234
:1012B0001901D0921A01E0921B01F0921C0180E00A
:1012C00090E00E94B1020E94AE036DE770E080E002
:1012D00090E00E94690180914D0190914E0101962C
:1012E00090934E0180934D0162E070E080E090E0C9
:1012F0000E94FD0110925A0150911D0159830E94D4
:10130000A301009115011091160120911701309150
:101310001801061717072807390708F063C00E944D
:10132000A301009104011091050120910601309163
:101330000701DC01CB01800F911FA21FB31F809317
:10134000150190931601A0931701B093180180E046
:1013500090E00E94B10280914C0140915A01798144
:10136000672F70E07B836A838823A9F0842F90E045
:101370002FE030E0261B370B8217930751F4809142
:101380002A01882319F010924C0113C010925A01BF
:1013900013C04F5F0FC041110CC080912A018823F8
:1013A00021F081E080934C0101C08FE080935A01CD
:1013B00003C0415040935A0110915A018A819B8188
:1013C000810F911D9B838A83812F90E0AA81BB812D
:1013D0008A179B072CF4812F0E9452031F5FF4CFC2
:1013E0000E94AE03C1010197F1F751CD992369F134
:1013F00081E080932A0180915A010E945203409219
:10140000040150920501609206017092070160E0AC
:1014100082E00E942A04809324010E94AE03ECEB38
:10142000F2E0F0932301E09322010E94A301DC018A
:10143000CB0184549D4FAF4FBF4F80931E019093BB
:101440001F01A0932001B09321010E944602833026
:1014500079F480914D0190914E01019690934E0147
:1014600080934D0190915A018FE1891B0E942E03B8
:101470000E94A30100911E0110911F0120912001E3
:1014800030912101061717072807390760F560E03A
:1014900081E00E942A04809324018091220190918E
:1014A00023018E3C910528F00597909323018093AA
:1014B00022010E94A3012091220130912301DC012D
:1014C000CB01820F931FA11DB11D80931E0190932C
:1014D0001F01A0932001B093210161E070E080E042
:1014E00090E00E94FD0180912401893008F450C0F1
:1014F0000E9445054DC0992369F081E080932A013F
:1015000080915A010E94520366E081E00E942A0401
:101510000E94AE030E944602813051F328F08230CF
:1015200041F0833051F034C080912501882381F14E
:10153000DFCF81E0809325012BC080914D019091F8
:101540004E01019690934E0180934D010E94850CAF
:1015500022E030E040E050E00E94F20C21E0672BF6
:10156000682B692B09F420E020934C0190915A01DB
:101570008FE1891B0E942E031092250166E081E015
:101580000E942A0463E070E080E090E00E94FD0188
:101590000E94C9037CCC992349F181E080932A0100
:1015A00080915A010E9452030E94A301DC01CB01E9
:1015B000805A9541AF4FBF4F8093260190932701EA
:1015C000A0932801B093290184E690E0A0E0B0E068
:1015D0008093040190930501A0930601B093070145
:1015E00060E086E00E942A040E94AE030E94460248
:1015F0008130B1F0833029F580914D0190914E01F9
:10160000059690934E0180934D0190915A018FE180
:10161000891B0E942E0360E081E00E942A0411C011
:1016200080914D0190914E018330910530F00297E9
:1016300090934E0180934D0104C010924E01109280
:101640004D010E94A30100912601109127012091D4
:10165000280130912901061717072807390708F0D4
:1016600097CF46CFC1010197F1F727CC0E94A30184
:101670006B017C0183E00E94B0009B838A8382E03F
:101680000E94B0008C010E940F03F0914F01F9837A
:101690008F2F0E9452032981E22FF0E0EE0FFF1FEF
:1016A000E55DFE4F808191810E9464020E94AE033D
:1016B00083E00E94B000892B61F482E00E94B000B8
:1016C000892B39F464E670E080E090E00E946901C3
:1016D000EFCF8A819B81892B81F40115110569F473
:1016E0000E94A301DC01CB018C199D09AE09BF0941
:1016F00089399A43A105B10560F483E00E94B000E6
:10170000892B51F482E00E94B000892B09F05BC064
:1017100003C00E94C405F1CFAA81BB81AB2B09F0A5
:1017200041C001151105F1F10E94A301DC01CB01BB
:101730008C199D09AE09BF0989389341A105B105EE
:1017400008F47FC00E94A301DC01CB018C199D0924
:10175000AE09BF0980319742A105B10508F071C0FB
:101760000E942A03EFEAF1E0F0930301E093020103
:1017700080916900837F886080936900E99A20E006
:1017800030E040E050E06AE070E08BE491E00E94DD
:10179000B101E99820EB31E030930301209302017D
:1017A0000E94260382E00E94B000892B99F483E016
:1017B0000E94B000892B71F064E670E080E090E058
:1017C0000E946901EFCF64E670E080E090E00E9443
:1017D000690193CF4A815B81452B79F0012B69F434
:1017E0000E94A301DC01CB018C199D09AE09BF0940
:1017F00085369105A105B10538F464E670E080E016
:1018000090E00E94690159CB51E050935001109231
:101810004E0110924D010E940F0361E06093080198
:1018200088EC90E0A0E0B0E0809304019093050183
:10183000A0930601B093070110925A0160934C01E6
:10184000DCCF0E94A301DC01CB018C199D09AE09FC
:10185000BF0988389341A105B10508F0A3CF809155
:101860004F018F5F873019F410924F019BCF809307
:101870004F0198CF8F929F92AF92BF92CF92DF92FB
:10188000EF92FF92CF93DF93EC01688179818A8197
:101890009B81611571058105910521F464E279ED63
:1018A0008BE597E02DE133EF41E050E00E94F20C30
:1018B00049015A019B01AC01A7EAB1E40E94110D54
:1018C0006B017C01ACEEB4EFA50194010E941F0DE9
:1018D000DC01CB018C0D9D1DAE1DBF1DB7FF03C0EC
:1018E0000197A109B04888839983AA83BB83BC016F
:1018F000CD019F77DF91CF91FF90EF90DF90CF9058
:10190000BF90AF909F908F9008958F929F92AF92CB
:10191000BF92CF92DF92EF92FF9260910901709196
:101920000A0180910B0190910C01611571058105EF
:10193000910521F464E279ED8BE597E02DE133EF39
:1019400041E050E00E94F20C49015A019B01AC01B8
:10195000A7EAB1E40E94110D6B017C01ACEEB4EF7B
:10196000A50194010E941F0DDC01CB018C0D9D1D72
:10197000AE1DBF1DB7FF03C00197A109B0488093FA
:10198000090190930A01A0930B01B0930C01BC01D3
:10199000CD019F77FF90EF90DF90CF90BF90AF90F9
:1019A0009F908F9008956093090170930A0180932E
:1019B0000B0190930C010895F999FECF92BD81BD62
:1019C000F89A992780B50895262FF999FECF1FBA66
:1019D00092BD81BD20BD0FB6F894FA9AF99A0FBE58
:1019E00001960895052E97FB1EF400940E94090DA0
:1019F00057FD07D00E94240D07FC03D04EF40C9431
:101A0000090D50954095309521953F4F4F4F5F4FB1
:101A1000089590958095709561957F4F8F4F9F4F5A
:101A200008950E94460DA59F900DB49F900DA49F10
:101A3000800D911D11240895B7FF0C94110D0E9483
:101A4000110D821B930B0895A1E21A2EAA1BBB1B3A
:101A5000FD010DC0AA1FBB1FEE1FFF1FA217B3077A
:101A6000E407F50720F0A21BB30BE40BF50B661F90
:101A7000771F881F991F1A9469F760957095809554
:101A800090959B01AC01BD01CF010895A29FB001CB
:101A9000B39FC001A39F700D811D1124911DB29FA2
:101AA000700D811D1124911D08950E945C0D689494
:101AB000B1110C94EB0D08950E94D00D88F09F5742
:101AC00098F0B92F9927B751B0F0E1F0660F771F62
:101AD000881F991F1AF0BA95C9F714C0B13091F058
:101AE0000E94EA0DB1E008950C94EA0D672F782F5B
:101AF0008827B85F39F0B93FCCF38695779567951D
:101B0000B395D9F73EF490958095709561957F4F88
:101B10008F4F9F4F0895E89409C097FB3EF490952E
:101B20008095709561957F4F8F4F9F4F9923A9F0B6
:101B3000F92F96E9BB279395F69587957795679545
:101B4000B795F111F8CFFAF4BB0F11F460FF1BC089
:101B50006F5F7F4F8F4F9F4F16C0882311F096E91C
:101B600011C0772321F09EE8872F762F05C06623CA
:101B700071F096E8862F70E060E02AF09A95660F83
:101B8000771F881FDAF7880F9695879597F908953C
:101B900057FD9058440F551F59F05F3F71F047951E
:101BA000880F97FB991F61F09F3F79F08795089503
:101BB000121613061406551FF2CF4695F1DF08C022
:101BC000161617061806991FF1CF8695710561053F
:101BD00008940895E894BB2766277727CB0197F9E7
:101BE00008950E94040E0C94750E0E94670E38F042
:101BF0000E946E0E20F0952311F00C945E0E0C9452
:101C0000640E11240C94EB0D0E94C80D70F3959F87
:101C1000C1F3950F50E0551F629FF001729FBB27E3
:101C2000F00DB11D639FAA27F00DB11DAA1F649F7F
:101C30006627B00DA11D661F829F2227B00DA11D32
:101C4000621F739FB00DA11D621F839FA00D611DB8
:101C5000221F749F3327A00D611D231F849F600DD9
:101C6000211D822F762F6A2F11249F5750409AF002
:101C7000F1F088234AF0EE0FFF1FBB1F661F771F8E
:101C8000881F91505040A9F79E3F510580F00C9459
:101C90005E0E0C94EB0D5F3FE4F3983ED4F3869513
:101CA00077956795B795F795E7959F5FC1F7FE2BF9
:101CB000880F911D9695879597F9089597F99F67D5
:101CC00080E870E060E008959FEF80EC08950024C4
:101CD0000A941616170618060906089500240A9491
:101CE00012161306140605060895092E0394000C17
:101CF00011F4882352F0BB0F40F4BF2B11F460FFA6
:101D000004C06F5F7F4F8F4F9F4F0895EE0FFF1FEF
:0C1D10000590F491E02D0994F894FFCFA9
:0E1D1C00B001B0013200000001010000000023
:00000001FF
